:400000000040002011000000490600004906000080B500AF00F01CFB80B500AF2C4B12221A6002F0CFFD2B4B181C02F0E9FB012002F0D8FD0C2002F0F3FB274B8022D205A0
:400040001A60264B254A126802210A431A60244B244A1A60244B244A126808218A431A60FA23DB00181C02F027FC204B181C02F04DFD1F4BB02212011A601E4B1E4A1A6074
:400080001E4BFE2212021A601A4B1D4A1A601D4BFE2212021A60174B1B4A1A601B4B802212061A601A4B00221A601A4B42221A60194B40221A60194B41221A60064B80223A
:4000C000D2051A60024B00221A60BD4680BDC04630001040001BB7000C020B4078002E407C002E406A2D00006CF02E40DC050000080301400000014042FF00800003014031
:4001000040FF00800403014041FF008008010B4000010B402C010140140101401001014080B582B000AF72B64A4B00221A60FB1D00221A7023E0FB1D1A78131C5B009B1825
:400140005B00454A9B183B603B681A78597809020A43997809040A43DB781B061343191C3B681A795B791B0213439BB2081C191C00F0F2FAFB1D1A78FB1D01321A70FB1DE9
:400180001B78012BD7D9354A354B101C191C00F0F3FA344B8022D2021A60334BEE2212061A60324BC02292041A60314BCC2292051A60304B992212041A602F4B9922120409
:4001C0001A602E4B802252051A602D4B992212041A602C4BC52212061A602B4A2A4B1B78DBB202210B43DBB21370284A274B1B78DBB23C218B43DBB214210B43DBB213700C
:40020000214A214B1B78DBB216210B43DBB213701F4BD82212041A601E4B7E221A601E4B8022D2021A601D4B3E221A601C4BC0221A601C4B902292031A601B4B01221A6032
:400240001A4B01221A60FFF7E7FE00F0D5FABD4602B080BD6CF02E40002901000C2901002429010014000B4000000240000202400003024000500F4020500F4028500F4029
:4002800030500F4038500F4000700F4001700F40080004400002044008020440180204400003044008030440000404401804044010B5064C2378002B07D1054B002B02D09B
:4002C000044800E000BF0123237010BD1804002000000000B828010008B5084B002B03D00748084900E000BF07480368002B00D108BD064B002BFBD09847F9E700000000A4
:40030000B82801001C040020C80000200000000080B500AF00F012F803F02EF9054B1B78012B05D1044B1B78012B01D100F02CF8F2E7C046370400203604002080B500AF6B
:4003400062B6104B181C00F035FC00F075FB00F0D1FAFF2000F0F2FBFF2000F0FFFBFF2000F04AFB062000F0ADFA062000F092FA062002F09DF901F025F801F017FCBD461F
:4003800080BDC046ED03000090B583B000AF01F04DFD01F077F8C04601F0A0F8031EFBD1BC1D002001F08EFE031C2380BB1D1B880C4A934213D0BB1D1B88642B0FD80A4BC5
:4003C0001B88BA1D12889A4209D0074BBA1D12881A80BB1D1B88DBB2181C00F0A9F8BD4603B090BDFFFF00003404002080B588B000AF786039607B68282B0CD004D8012B0A
:4004000009D0262B0BD083E0422B15D04C2B28D0412B0DD07CE0002000F028FC78E03E4B1B78042B03D1002000F020FC70E06FE03A4B01221A706BE0384B00221A70384B49
:4004400000221A70374B00221A70364B00225A70344B00229A70334B0022DA7000F090F856E03B68FB61FB699A892F4B5B899A4215D1FB695B681A782A4B1A70FB695B686D
:400480005A78284B5A70FB695B689A78254B9A70FB695B68DA78234BDA7000F071F8FB699A89214B9B889A4223D1FB695B681A781B4B1A701A4B1A781823FB181A70182357
:4004C000FB1800225A700C23FB180F221A810C23FB181822BA181A600C23FB1802229A800C23FA18114B101C00211A1C00230DF02BFE0E4B1A785B781B021A4300231204CD
:40050000120C1B0C1B041343181C0DF0EDF8C046BD4608B080BDC046B81D0020370400203604002040130020C82E0100C01D002080B586B000AF021CFB1D1A700C23FB18BA
:400540000E221A810C23FB18FA1D1A600C23FB1801229A80094B0C22B9181A785B781B021A4300231204120C1B0C1B041343181C0DF05CF8BD4606B080BDC046C01D0020BB
:4005800080B582B000AFFB1D2C4AD2781A702B4B1B781A1CFB1D1B785343181CFF2102F0AFFE031C1A1CBB1D1A70244B5B781A1CFB1D1B785343181CFF2102F0A1FE031CDC
:4005C0001A1C7B1D1A701D4B9B781A1CFB1D1B785343181CFF2102F093FE031C1A1C3B1D1A70BB1D1B78DB43DBB2181C00F0A6FA7B1D1B78DB43DBB2181C00F0AFFA3B1DCE
:400600001B78DB43DBB2181C00F0F6F90C4B13221A810B4B094A1A60094B04229A80084B0422DA80064A074B101C00211A1C00230DF08AFDBD4602B080BDC0464013002081
:4006400034130020C01D002080B500AFFEE7C04680B586B000AF224B7B61224B3B61204B7B6135E03B691B68FB603B695B68BB603B699B683B6000237B600CE0FB681A686A
:40068000BB681A60BB680433BB60FB680433FB607B6804337B607A683B689A42EED13B69DB683B6000237B6008E0BB6800221A60BB680433BB607B6804337B607A683B6808
:4006C0009A42F2D13B6910333B617B69013B7B617B69002BC6D102F005FFFFF719FEFEE701000000F42F010080B582B000AF154B144A126801218A431A6000237B600FE085
:400700007B68032B04D8104B7A689200D35800E00E4B0F4A796889008B507B6801337B607B682F2BECD9FFF7FBFC0A4B00221A60044B044A126801210A431A60BD4602B074
:4007400080BDC04600001040000000004906000000000020C000002080B582B000AF786039607A683B68101C00211A1C02F0F8FEBD4602B080BDC04680B586B000AF786036
:40078000396000233B6100237B612FE07B699B007A68D3181B68BB600F23FB18BA681A70BB68FF229343BB6018E03B695B003A68D3181B781A1CBB68D318191C3B695B0034
:4007C0003A68D3185B780B703B6901333B610F23FB181A780F23FB18013A1A700F23FB181B78002BE1D17B6901337B617B69052BCCD9BD4606B080BD80B500AF064B032217
:400800001A60064B03221A60054B00221A60012000F008F8BD4680BD3000304030003140000E3F4080B584B000AF021CFB1D1A70154B1B68FB60FB1D1B78002B05D0FB681F
:40084000802212061343FB6003E0FB685B005B08FB600D4BFA681A600C4B1B68FB60FB1D1B78002B05D0FB68982292051343FB6003E0FB68064A1340FB60044BFA681A60C6
:40088000BD4604B080BDC04680033A4008010B40FFFFFFD980B582B000AF021CFB1D1A70064B064A126806491140FA1D127892040A431A60BD4602B080BDC0460803044041
:4008C000FFFFE3FF80B582B000AF021CFB1D1A70064B064A126806491140FA1D127892040A431A60BD4602B080BDC04608020440FFFFE3FF80B500AF064B1B78002B04D19B
:4009000000F00AF8034B01221A7000F03DF8BD4680BDC0463804002090B583B000AFFF2000F040F8B82000F057F8012000F064F8012000F071F8FC1D01F06BFF031C237071
:400940000F4A0F4B1B78DBB201210B43DBB21370FB1D1B78181C01F060FF0A4A094B1B78DBB202218B43DBB21370064A054B1B78DBB204218B43DBB21370BD4603B090BD66
:4009800093000F4073000F4080B500AF044A044B1B78DBB201210B43DBB21370BD4680BD73000F4080B582B000AF021CFB1D1A70FB1D1B78002B07D0054AFB1D1B78137070
:4009C000044AFB1D1B781370BD4602B080BDC04643000F4003000F4080B582B000AF021CFB1D1A70034AFB1D1B781370BD4602B080BDC04613000F4080B582B000AF021CC0
:400A0000FB1D1A70034AFB1D1B781370BD4602B080BDC04623000F4080B582B000AF021CFB1D1A70034AFB1D1B781370BD4602B080BDC04633000F4080B500AF064B1B789C
:400A4000002B04D100F00AF8034B01221A7000F03DF8BD4680BDC0463904002090B583B000AFFF2000F040F8B82000F057F8012000F064F8012000F071F8FC1D01F0C9FE84
:400A8000031C23700F4A0F4B1B78DBB201210B43DBB21370FB1D1B78181C01F0BEFE0A4A094B1B78DBB202218B43DBB21370064A054B1B78DBB204218B43DBB21370BD4616
:400AC00003B090BD92000F4072000F4080B500AF044A044B1B78DBB201210B43DBB21370BD4680BD72000F4080B582B000AF021CFB1D1A70FB1D1B78002B07D0054AFB1D48
:400B00001B781370044AFB1D1B781370BD4602B080BDC04642000F4002000F4080B582B000AF021CFB1D1A70034AFB1D1B781370BD4602B080BDC04612000F4080B582B038
:400B400000AF021CFB1D1A70034AFB1D1B781370BD4602B080BDC04622000F4080B582B000AF021CFB1D1A70034AFB1D1B781370BD4602B080BDC04632000F4080B500AF74
:400B8000064B00221A70064B00221A70054B00221A7000F009F8BD4680BDC046C31D0020BC1D0020C21D002080B500AF00F060FBBD4680BDF0B58DB002AF78602623FB18DA
:400BC00001221A80214B1B78002B04D1FFF7D6FF1E4B01221A707B68002B30D00C23FA181B4B111C1A1C1823081C111C1A1C02F0AEFC2623FC181749174A184E0C23FD181A
:400C000006230093081C111C321C2B1C02F0CAFC031C2380124B7A681A602623FB181B88002B0CD10F4B01221A702623FC180E4B181C14210F220DF06FFA031C2380262310
:400C4000FB181B88181CBD460BB0F0BD3C040020142A01009D0F000050130020640A000048130020B81D0020142B010090B585B000AF021CFB1D1A70FB1D1B78022B04D995
:400C80000E23FB1801221A804BE0294B1B78042B42D1284B1B78DBB21A1C042313403BD1FB1D1B78002B0BD1234B1E221A82224B5B6820221A80204B5B6830225A8010E01E
:400CC000FB1D1B78012B0CD11B4B96221A821A4B5B68C822D2001A80174B5B688022D2015A80164BFA1D12781A700E23FC18124B181C0BF071FB031C23800E23FB181B8822
:400D0000002B08D10B4B1B78DBB204221343DAB2084B1A7005E004E00E23FB180422FF321A800E23FB181B88181CBD4605B090BDB81D0020C31D0020FC000020C21D002026
:400D400080B584B000AF78600A1CFB1C1A700023BB60BB68002B20D07B689A79BB681A700F23FB1800221A7012E00F23FB181B780133BA68D3180F22BA18127879688A5C4D
:400D80001A700F23FB181A780F23FB1801321A700F23FB181B78052BE7D9BD4604B080BD80B582B000AF78607B681B789AB27B6801331B789BB21B029BB213439BB2181C2C
:400DC000BD4602B080BDC04690B585B000AF78600F23FB1800221A707B689B890B22934237D17B681A1D7B680F217C18101C00211A1C40230DF0A8F9031C23700F23FB18BC
:400E00001B78002B1DD17B685B68181CFFF7C8FF031C1A1C022313409BB2002B08D0104B1B68822251007A68081C111C984708E00B4B1B680622FF32111C7A68081C111CF3
:400E40009847084B1B78DBB201229343DAB2054B1A700F23FB181B78181CBD4605B090BD48130020C31D002090B585B000AF78600F23FC187B68181CFFF7A6FF031C23708A
:400E8000144B1B78DBB21A1C012313401FD10F23FB181B78002B16D00823FB1812229A707B689A890823FB181A800823FB180F22BA181278DA707B680822BA181868111C32
:400EC0000CF098FB03E07B6818680CF00DFCBD4605B090BDC31D002080B582B000AF7860BD4602B080BDC04680B500AF034B00225A70024B00221A70BD4680BDC01D0020D9
:400F000080B582B000AF7860BD4602B080BDC04680B500AFBD4680BD80B584B000AF78600E23FB1800221A707B689B79002B1CD10F23FB1800221A7012E00F23FB181B78FD
:400F40007A68D35C002B04D00E23FB1801221A700BE00F23FB181A780F23FB1801321A700F23FB181B78052BE7D90E23FB181B78181CBD4604B080BD80B582B000AF021CB1
:400F8000BB1D1A80BD4602B080BDC04680B582B000AF7860BD4602B080BDC04680B584B000AF021C3960FB1D1A70A24B1B78DBB201221343DAB29F4B1A70FB1D1B78712BA3
:400FC00000D91BE19A009C4BD3181B689F460C23FB1807221A700C23FB1800225A700C23FB18181C03F07FFD0C23FB1807221A700C23FB1801225A700C23FB18181C03F0B3
:4010000072FD8E4B1B68181CFFF786FF031E11D08A4B1B68181C02F0B3FA884B1B68181C0021FFF78DFE854B1B68181C0121FFF787FE19E0824B1A78824B1A70824B1A78AB
:40104000804B5A70814B1A787E4B9A707D4B181C02F096FA7B4B181C0021FFF771FE794B181C0121FFF76CFE03200BF077F8784B04221A70C3E03B68181CFFF741FFBEE0E4
:401080003B681A78734B1A70B9E06A4B1B78DBB21A1C202313400ED16F4B1B78102B02D16D4B0522DA706D4B1A786B4B101C191C0BF05CF9A3E0A2E03B68181CFFF766FF2E
:4010C0009DE03B68181CFFF761FF614B02221A7095E05F4B04221A7091E05D4B1B78022B40D0544B1B78DBB21A1C0123134039D0504B1B78DBB21A1C042313400BD0544BDA
:4011000003221A704B4B1B78DBB204229343DAB2484B1A7026E0474B1B78DBB21A1C082313400BD04A4B04221A70424B1B78DBB208229343DAB23F4B1A7013E0444B1B78B7
:40114000032B0FD1424B04221A70454B1B78002B08D10120FFF78AFD031E03D13C4B03221A704CE04BE03B681B88181CFFF704FF45E03A4A3B68111C1A1C0223081C111C45
:401180001A1C02F0E4F9354B1B789A00354BD318354A111C1A1C0423081C111C1A1C02F0D6F9FFF7B5FE2AE0FFF79EFE27E03B685B88162B05D80E23FB183A6852881A8077
:4011C00003E00E23FB1817221A803B680E22BA1811881A8800231204120C1B0C1B041343181C0CF013FA0AE03B68181CFFF73CFE05E03B68181CFFF76FFE00E0C0460D4B97
:401200001B78DBB21A1C112313400FD0094B1B78DBB201229343DAB2064B1A70134B1B68FA1D11783A68081C111C9847BD4604B080BDC046C31D0020002D0100180100206A
:401240007CF1FF0F100100207DF1FF0F7BF1FF0FB81D0020BC1D0020A8010020C01D0020C21D0020002B0100B41D00204813002080B500AFBD4680BD80B582B000AF002324
:401280007B6007E00A4A7B68D31800221A707B6801337B607B68042BF4D900F00BF8002000F060FB00F036F9BD4602B080BDC046E81D002080B582B000AF244B1B68DAB29F
:4012C000234B1A70224B1B787B607B680F2293437B60204B1B78DBB21A1C0F2313407A6813437B607B68F02293437B60194B1B78DBB21A1CF02313407A6813437B60134BC6
:401300007A681A60144B154A1A60154B154A1A60154B1B687B607B680F2293437B607B68062213437B60104B7A681A60102001F097FB0E4B1020191C01F004FB10200321B5
:4013400001F026FBBD4602B080BDC04600FF2840C41D002062F1FF0F0800284000020001040028400008A001000402400123000080B582B000AF01F011FA01F0C7F90020C5
:40138000002101F0D3F90020002101F017FAFF2001F0A6F9402001F0EBF9084B1B687B607B68074A13437B60044B7A681A60102001F042FBBD4602B080BDC04604002840A5
:4013C0000010088080B500AF0C4B1B78002B04D1FFF752FF094B01221A70FFF7C9FF00F0FBFF074B01221A70064B064A12688021C9030A431A60BD4680BDC0466E04002071
:40140000600400200400284080B584B000AF021CFB1D1A70FB1D1A78FB1D01321A70FB1D1B78052B00D10BE0FB1D1B78074A101C191C00F0AFFA031CFB60FB68002BE9D017
:40144000FB1D1B78181CBD4604B080BDAC01002080B582B000AF7860084B00221A707B68DAB2074B1A70054B81221A707B68181C00F054F9BD4602B080BDC0466104002046
:401480006204002080B500AF124B00221A70124BFF221A70104B1B78DBB2181CFFF7B4FF031C1A1C0C4B1A700B4B1B78DBB2042B0DD8084B1B78DBB201221343DAB2054BD1
:4014C0001A70054B1B78DBB2181C00F027F9BD4680BDC046610400206204002080B500AF044B1B78DBB21A1C01231340181CBD4680BDC0466104002080B582B000AF786070
:40150000034B7A685200D35A181CBD4602B080BD6404002080B582B000AF00237B6006E07B68181C00F06EF87B6801337B607B68042BF5D9BD4602B080BDC04690B587B0A1
:4015400000AF78602B4A7B68D3181B787B612A4A7B68D3181B781322BA18191C0B1CDB185B181370244A7B68D3181A781223FB1892001A701123FC1801F04BF9031C2370B0
:401580001E4B7A699200D3581B68FB601223FB181B780F229A40131CDA43FB681340FB601223FB181B7804229A40131CFA681343FB60134B7A699200D358114A7969890020
:4015C0008A58126813217918097807208840011CC9430A401A60094B7A699200D358FA681A601123FB181B78181C01F016F9BD4607B090BDD82E0100F42E0100042F01002A
:401600001C2F010090B589B000AF78603D4A7B68D3181B787B613C4A7B68D3181A781323FB1892001A70384A7B68D3181B781222BA18191C0B1CDB185B1813700023FB619D
:40164000324A7B68D3181B78BB61314B7A699200D3582F4A796989008A5812681321791809780F208840011CC9430A401A60BB69022B01D10023BB61BB69012B01D006233F
:40168000FB611123FC1801F0C4F8031C2370214B7A699200D3581B68FB601223FB181B7807229A40131CDA43FB681340FB601223FB181B78FA699A40131CFA681343FB60A8
:4016C000144B7A699200D358FA681A601123FB181B78181C01F0A1F80F4B7A699200D3580D4A796989008A5812680748796841180978081C01218140C9430A401A60BD467B
:4017000009B090BDD82E0100F42E0100E81D0020042F01001C2F0100342F010090B589B000AF78601B23FB184E497A688A1812781A701B23FB181A784B4B9200D358FB6159
:401740004A4A7B68101C191C00F024F9031C7B61FB69474A934209D87B69FA699A40131CFB61FB69FF2212041343FB6101F016F800F0CCFF3F4A7B68D3181B789BB2013BB8
:401780009BB2181C002100F0D1FF3B4A7B68D3181B789BB2013B9BB2181C002101F00EF8FF2000F09DFF402000F0E2FF102001F057F9324B802252021A60C0462F4B1B6882
:4017C0001B0C1B04FAD12E4B01221A60102001F05BF9102001F030F9102001F041F9294B1B683B613B69284A13403B61274A7B68D3181B78191C264A7B68D3181B781B0419
:401800000B433A6913433B611E4B3A691A60214B1B683B613B69204A13403B613B691F4A13433B61102001F007F97B68181CFFF785FE0F23FC1800F0ECFF031C2370154BD4
:401840003A691A60002000F0DBFF0C4BFA691A600F23FB181B78181C00F0DFFFBD4609B090BDC046FC2E0100C4010020E41D0020FFFFFEFFF01D0020CC1D00200C0028406E
:40188000140028400800284000FF80FFD41D0020DC1D002004002840FF1FDFFF2000200080B586B000AF7860244B1B6899B2244B7A685200D152234A7B68D3181B787B614D
:4018C000214B7A699200D358204A934214D8204A7B68101C191C00F05DF8031C3B61184B7A685200D35A1A1C3B691A41131C99B2134B7A685200D1527B68181CFFF782FE4E
:40190000102001F0ADF8134B1B68FB60FB68124A1340FB60FB68A02212021343FB600D4BFA681A600D4B0D4A12680D490A401A60102001F081F8BD4606B080BD0C002840D3
:4019400064040020FC2E0100C4010020FFFFFEFFE41D002004002840FF1FDFFF0800284000FF80FF80B584B000AF78607B68032213407B60064B1B68FB607B685B02FA6866
:401980001343FB60024BFA681A60BD4604B080BD0400284080B584B000AF786039603B68DB08FB603B680722134001229A400B23FB181A707A68FB68D3181B780B22BA18DA
:4019C00012781340DBB2002B01D0012300E00023181CBD4604B080BD80B586B000AFF860B9607A60BB68DB087B61BB680722134001229A401323FB181A707B68002B0DD091
:401A0000FA687B69D318F9687A698A1811781322BA1812780A43D2B21A700EE0FA687B69D318F9687A698A181278132179180978C943C9B20A40D2B21A70BD4606B080BD70
:401A400080B584B000AF78600023BB600023FB6015E07B68181CFFF7FBFCC046FFF73EFD031E012BFAD07B68181CFFF745FD031C1A1CBB689B18BB60FB680133FB60FB6889
:401A8000002BE6D0BB689BB2181CBD4604B080BD80B588B000AF786039600023FB613AE000237B611F4AFB69D3181B783B611E4AFB69D3181B78BB61BA693B69D318FB602E
:401AC0000FE03A68BB69D3181B781A1E7B699A4204D93A68BB69D3181B787B61BB690133BB61BA69FB689A42EBD30F4AFB69D3181B78BB6108E03A68BB69D3187A69D2B2D3
:401B00001A70BB690133BB61BA69FB689A42F2D3FB690133FB61FA697B689A42C0D3BD4608B080BD502F01004C2F010080B582B000AF78600E4B7A685200D15A0D4B7A6803
:401B40005200D1520C4A7B68D31800221A700B4A7B68D31800221A70054B7A685200D15A074B7A685200D152BD4602B080BDC04664040020700400207C040020840400209D
:401B8000081E002080B582B000AF78607B68181CFFF75EFCC046FFF7A1FC031EFBD17B68181CFFF7C3FFBD4602B080BD80B582B000AF00237B6006E07B68181CFFF7E2FF5B
:401BC0007B6801337B607B68042BF5D9BD4602B080BDC04690B587B000AF78600F23FB187E497A688A1812781A700F23FB181A780E23FB187A498A5C1A701023FB18794A1D
:401C0000796849008A5A1A80774B1B78002B15D0764B7A685200D25A1023FC181023FB181B88181C111C00F04DFB031C23806F4B7A685200102179180988D1527B68DAB218
:401C40006B49684B081C111C1A1C01F0C1F8694B7A685200D35A1022BA1812889A4212D3654A7B68D31800221A70624B7A685200D25A1223FB181021791809888A1A1A8049
:401C800001237B610CE05B4B7A685200D15A1223FB181022BA1812888A1A1A8000237B617B69002B2AD10F23FB181B78534AD35C9BB21222BA1812889A421FD94E4A7B6826
:401CC000D3181A784E497B68CB181B789A4209D37B68181CFFF72AFF474A7B68D31800221A7051E0444A7B68D3181B780133D9B2414A7B68D3180A1C1A7045E00E23FB182D
:401D00001B789BB21222BA1812889A420DD90F23FB181B78394AD35C9BB21222BA1812889A4231D27B69002B2ED1324B7A685200D35A1B02BB60334A7B68D3181B781A1CD3
:401D4000BB681343BB601023FB181B88BA68D318BB60284B7A685200D35A1A1CBB689B1ABB60BB681B0A99B2224B7A685200D152BB68D9B2234A7B68D3180A1C1A701E4A69
:401D80007B68D31800221A700E23FB181B789BB21222BA1812889A4217D97B69002B14D01223FB181B88FF2B05D9174A7B68D318FF221A700EE01223FB181B88D9B2124A99
:401DC0007B68D3180A1C1A7004E00F4A7B68D31800221A70BD4607B090BDC046FC2E0100F81D002064040020CD010020081E00204C1E002070040020FC1D0020041E0020EC
:401E0000C80100207C0400208404002080B582B000AF78607B68181C00F060FB7B68181CFFF7D8FEBD4602B080BDC04680B582B000AF00237B6011E00B4A7B68101C191CA8
:401E4000FFF7A8FD031C3B603B68002B03D07B68181CFFF7DBFF7B6801337B607B68042BEAD9BD4602B080BDAC01002090B585B000AF041C081C111CFB1D221C1A70BB1DAD
:401E8000021C1A707B1D0A1C1A700E23FB18FF221A700D23FB1800221A70FB1D1A78204BD318BB600F23FB1800221A702AE00F23FB181B78BA68D3181B787A1D12789A42C9
:401EC00019D20F23FB181B78BA68D3181B780D22BA1812789A420ED20E23FB180F22BA1812781A700F23FB181B78BA68D2180D23FB1812781A700F23FB181A780F23FB1886
:401F000001321A700F23FA18BB1D12781B789A42CDD30E23FB181B78181CBD4605B090BD84040020B0B588B000AF051C0C1C101C191CFB1D2A1C1A70BB1D221C1A707B1D61
:401F4000021C1A70BB1C0A1C1A80BB1D1A785B4BD318BB611F23FB1800221A70FB1D1B78002B05D01F23FB18FA1D1278013A1A701723FB18FA1D127801321A70FB1D1B784E
:401F8000BA69D3181A784E4B5A70FB1D1B78002B0BD14B4B00221A701723FB181B78BA69D3181A78464B9A7022E0FB1D1A787B1D1B78013B9A420BD11F23FB181B78BA6939
:401FC000D3181A783E4B1A703D4B00229A700FE01F23FB181B78BA69D3181A78384B1A701723FB181B78BA69D3181A78344B9A70334B1B783022BA1812789A4209D2304B1F
:402000001A783023FB181B78D31ADAB22C4B1A7002E02B4B00221A70294B5A783023FB181B78D31ADAB2264B5A70254B9B783022BA1812789A4209D2214B9A783023FB18D8
:402040001B78D31ADAB21E4B9A7002E01C4B00229A701B4B9B781A1C194B1B78D31A3B61174B1B781A1C164B5B78D318144A92789B18FB603B691B02181CF96801F040F9FD
:40208000031C1A1CFB1D1B781B02D318FB60BB1C1B881AB2FB685343FB60FB68FE22D201944663441A0C0B23FB181A700B23FB181B78181CBD4608B0B0BDC046840400207D
:4020C0009404002090B589B002AF78601523FB1866497A688A1812781A701423FB1864497A688A1812781A701323FB1800221A701223FB1805221A705E4A7B68D3181A780A
:402100001123FC181323FB1819781223FB181B78081C191CFFF7AAFE031C23701123FB181B78FF2B00D189E0C8235C01524A7B68D3181B781122BA1810781322BA18117859
:402140001222BA1812780093231CFFF7EBFE031C1A1C1623FB181A801423FB181B781F22134000D17BE01023FB181522BA18127801321A701523FB181B783C4AD35C002BF2
:4021800025D11023FB181B781622BA181288D1B2364AD1541423FB181B780122134005D11423FB181B780222134009D01023FB181B7801331622BA181288D1B22B4AD15460
:4021C0001523FB181B78294A0121D15447E01423FB181B780222134041D00F23FB181622BA1812881A701023FB181B781F4AD35C99B21023FB181B7801331C4AD35C9AB29E
:402200001623FC181623FB181B88181C00F036F8031C23801023FB181B7801331022BA1812781249895C114AD1541023FB181B780E4A0F2179180978D15410E01623FB181F
:40224000012252421A801423FB181B781F22134005D01523FB181B78044A0021D1541623FB181B88181CBD4607B090BDD8010020D4010020181E0020F81D002090B585B038
:4022800000AF041C081C111CBB1D221C1A803B1D021C1A80BB1C0A1C1A80BB1D1A883B1D1B88D218BB1C1B88D318181C032100F097FF031CFB60FB689BB2181CBD4605B0EF
:4022C00090BDC04680B584B000AF021CBB1D1A803B1D0A1C1A80BB1D1A883B1D1B88D318FB603B1D1B885B00FA68D318FB60FB689B08FB60FB689BB2181CBD4604B080BDD9
:4023000080B500AF102000F0ABFB2D4B01221A602C4B1B78DBB2181CFFF7C2FA2A4B1B78DBB2DBB25BB2002B08DA274B1B78DBB201229343DAB2244B1A703CE0214B1B78FA
:40234000DBB2181CFFF760F8031C1A1C1D4B1A701C4B1B78DBB2042B06D81A4B1B78DBB2181CFFF7DBF926E0174B1B78DBB201229343DAB2144B1A70134B1B78DBB21A1C46
:402380004023134017D0114B00221A700FE00F4B1B781A1C0D4B1B78191C0D4B595C0D4B99540A4B1B780133DAB2084B1A70074B1B78002BEBD0102000F03EFBBD4680BD0B
:4023C00014002840620400206104002098040020C81D0020AC01002080B582B000AF364B05221A70344B01225A70334B05229A70314B0C22DA80304B304A9A802E4B304A5F
:402400009A6000F0E7F800233B6007E02D4B3A6892002D49D1503B6801333B60264B5B781A1E3B689A42F1D800237B600CE0274A7B68D31804221A70254A7B68D31801227C
:402440001A707B6801337B607B68042BEFD900F0CDF8194B1F4A181C111C00F003FC1E4B0120191CFFF714FB134B181C00F00CFC114B184A181C111C00F0F4FB164B012066
:40248000191CFFF705FB0C4B181C00F021FC0A4B181C00F0C5F800237B6006E07B68181C00F01CF87B6801337B607B68042BF5D9BD4602B080BDC0464C1E0020980900002F
:4024C000682F0100C40100200000FF0FCC1D0020F01D00209A0D0000D41D002090B587B002AF7860344A7B68D3181B78FB607B68D9B2FB68DCB23148314A324B0093324B44
:402500000193231C00F0F0FC0B23FB182D49FA688A1812781A702C4AFB68D31819782B4AFB68D3180A1C1A700B23FB181B78DB2B0AD80B23FB181B78DB08D9B2244AFB6886
:40254000D3180A1C1A7034E00B23FB181B78EC2B0AD80B23FB181B781B09D9B21C4AFB68D3180A1C1A7024E00B23FB181B78F42B0AD80B23FB181B785B09D9B2144AFB689B
:40258000D3180A1C1A7014E00B23FB181B78F92B0AD80B23FB181B789B09D9B20C4AFB68D3180A1C1A7004E0094AFB68D31800221A70BD4605B090BDFC2E01004C1E002070
:4025C00064040020181E0020F81D0020041E0020141E002080B500AF034B034A126840218A431A60BD4680BD0400284080B582B000AF094B1B687B607B68084A13407B60BC
:402600007B688022920013437B60034B7A681A60BD4602B080BDC04608002840FFFCFFFC80B584B000AF78600023FB6019E01B4AFB68D3181B785B08D9B2194AFB68D318FE
:402640000A1C1A70154AFB68D3181B7801335B08D9B2124AFB68D3180A1C1A70FB680133FB607B681B781A1EFB689A42DFD8102000F0F6F90B4B1B68BB60BB680A4A13408B
:40268000BB60BB68094A1343BB60064BBA681A60102000F0D1F9BD4604B080BDD41D0020DC1D002008002840FFFCFFFC0002000180B582B000AF021CFB1D1A70064B064A43
:4026C000126806491140FA1D127852050A431A60BD4602B080BDC04608030440FFFF1FFF80B582B000AF7860C046064B1B68002BFBDB044B7A68120203490A431A60BD467A
:4027000002B080BD000001404000008080B500AFC046044B1B68002BFBDB024B024A1A60BD4680BD000001404000004080B584B000AF021CBB1D1A807B1D0A1C1A700B4B92
:402740001B6807221340FB60BB1D1B881A02FB681A437B1D1B78DB00FF210B401343BB60024BBA681A60BD4604B080BD0003014080B582B000AF7860C046064B1B68002BB2
:40278000FBDB044B7A68120203490A431A60BD4602B080BD000001404100008080B500AFC046044B1B68002BFBDB024B024A1A60BD4680BD000001404100004080B584B0BC
:4027C00000AF021CBB1D1A807B1D0A1C1A700B4B1B6807221340FB60BB1D1B881A02FB681A437B1D1B78DB00FF210B401343BB60024BBA681A60BD4604B080BD0403014044
:402800000230800803D00138FDD1C046C046C0467047EFF3108072B6704780F31088704790B58BB000AF78602723FC18FFF7F1FF031C2370184B1A680C23FB181A60174B28
:402840001A680C23FB185A607B68033B144AD35C1A1C0C23FB189A60124B1A680C23FB18DA601C23FB18104A1A600C23FA181C23FB185A600D4B1C22BA181A600C4B0D4A5C
:402880001A600A4B1B682723FB181B78181CFFF7C4FFBD460BB090BD08010B4000010B40A02F010030001040B6EA000008001040040010401700008080B584B000AF78601B
:4028C0000023FB60154B154A126801210A431A60134B144A1A60144B134A1268802109020A431A607B68002B12D01023FB600CE0012000F00BF900F019F8031E02D00023C3
:40290000FB6005E07B68013B7B607B68002BEFD1FB68181CBD4604B080BDC04660F02E4078002E400220000010002E4080B500AF034B1B6801221340181CBD4680BDC04615
:402940000C002E4080B584B000AF021C3960FB1D1A7080239B05FB60FB1D1B781F2B02D9002000F0A5F8FB1D1B7810339B00FA68D3181B68BB60FB1D1B7810339B00FA68F2
:40298000D3183A681A60BB68181CBD4604B080BD90B587B000AF021CFB1D1A70BB1D0A1C1A70BB1D1B78032B02D9002000F080F8FB1D1B781F2B02D9002000F079F8FB1DED
:4029C0001B7803221340DB0006337B611323FC18FFF71FFF031C2370FB1D1B789B08DBB29B00144A944663441B68FB607B6903229A40131CDA43FB681340FB60BB1D1A78EF
:402A00007B699A40131CFA681343FB60FB1D1B789B08DBB29B00074A94466344FA681A601323FB181B78181CFFF7F7FEBD4607B090BDC04600E400E080B582B000AF021C72
:402A4000FB1D1A70054BFA1D12781F210A40012191400A1C1A60BD4602B080BD00E100E080B582B000AF021CFB1D1A70054BFA1D12781F210A40012191400A1C1A60BD460C
:402A800002B080BD80E100E080B582B000AF021CFB1D1A70054BFA1D12781F210A40012191400A1C1A60BD4602B080BD80E200E080B582B000AF021CFB1D1A7001BEBD4636
:402AC00002B080BD80B582B000AF786009E00C4B1B68181CFFF794FE7B680A4A944663447B607A6880231B029A42F0D8064B1B687A685343181CFFF783FEBD4602B080BDB8
:402B0000F00100200080FFFFE801002080B582B000AF021CBB1D1A80BB1D1B88044A12785343181CFFF76CFEBD4602B080BDC046EC01002080B500AF0E4B0E4A12680121A4
:402B40008A431A600B4B0B4A126802218A431A60094B094A126830218A4310210A431A60054B054A126807218A4301210A431A60BD4680BD00F02E4000FF2E4080B500AF62
:402B80000E4B0E4A126802218A431A600C4B0C4A126807218A4302210A431A60084B084A126830218A4320210A431A60034B034A126801210A431A60BD4680BD00F02E4099
:402BC00000FF2E4080B500AFFFF7B4FF044B044A1268802109060A431A60BD4680BDC04600F02E4080B584B000AF78600C4B1B6801221340FB607B68002B02D0012B03D02F
:402C000005E0FFF797FF06E0FFF7B8FF03E00020FFF74EFFC046FB68181CBD4604B080BD00F02E40F7B59C180023071C01910092237008268025237800982B432370BB68D4
:402C40005B6A9847019A904202D22378AB432370013E6D08002EEED12378F82B01D9F8232370F7BD70B5051C0E1C00242B789C4208D2AB68221C1B68281C311CFFF7D2FF9D
:402C80000134F3E770BD000038B5051C00242B789C4218D2AA6811680B5DDB080F2B00D90F230949D268C95C08481155AA68042B03D9536B211C012202E0536B211C00227F
:402CC00098470134E3E738BD582F0100E41D0020F0B5051C89B000266B789E4265D2AB68186A805D0290002801D101210291DA69925D009200982A78904254D29A689B698A
:402D0000115C0F22114004910099B00000221A504B002749009C59180591264903905918069125495918079102980099019243189C4238D2AF68AB88FA68E888115D58432D
:402D400000F0DEFA3B68195D00F04AFA04991B4B484340005A2802D95B084008FAE7BA6903991B0C1B045350154B82081855154BC0081A55144B0F221855144B1A5501998C
:402D8000059801235B42435206980023435207984352AB689B681B19197801340A401A70019A0232C0E7013696E709B0F0BDC0462C1E0020581E0020381E00200000FFFFA8
:402DC000441E0020641E0020241E00201C1E0020F0B54B0089B003939A5A039C3B4B039FE55A3B4E551B02953A4DE2527D5B745C0495394D394E7D5B394F05957F5C029D2D
:402E0000069787686400BF68735C7F5CB4460797EF0FE419EE170F272740AD19019775409D4203D2012B05D0013B00E00133FF243F2B00D89C00019E67467B540F2E2BD030
:402E4000002E26D0A54227D8079F049D3C09161EAE4200D92E1C059F151EBD4200D23D1C09220027A2427F41BC466444321C0A2C14D1AA1B934207D9069FBF08BC469C45A2
:402E8000924152429B1A00E00133164A5354321C04E0151C019C01E0151C00240C4B019E039F5E540B4B2401DA530B4B0F22DD5383689B685B181D782A401A7083689B6824
:402EC00059180B781C430C7009B0F0BD381E00201C1E00202C1E0020581E0020241E0020441E0020641E002010B50D4A505C0D4A515CFF223F2901D88A00D2B24CB2002CE1
:402F000002DB4900C9B200E0FF21904201D94108021C012082430298C254039AD15410BD441E0020641E002080B582B000AF78600A1CBB1C1A80BB1C1A887B681A60BD4636
:402F400002B080BD80B582B000AF78600A1CBB1C1A80BB1C1A887B681A60BD4602B080BD80B582B000AF304B1B78DBB21B022F4A1278D2B213437B602D4B1B78DBB21B02DA
:402F80002C4A1278D2B213433B603B682A4A934207D17B68072B04D1284B3B6004237B6009E03A68D4231B019A4204D17B68042B01D1224B3B60224B3A681A60214B7A68CC
:402FC0001A60214B1B78DBB21B02204A1278D2B213437B607A6880239B019A4202D07B68002B01D11A4B7B601A4B7A681A601A4B1B78DBB21B02194A1278D2B213437B6011
:403000007B68174A934206D07B68164A934202D07B68052B01D1144B7B60144B7A681A60BD4602B080BDC046D9F0FF0FD8F0FF0FDFF0FF0FDEF0FF0F580B0000580D0000B7
:403040006C002E4074002E40DBF0FF0FDAF0FF0F0220000078002E40DDF0FF0FDCF0FF0F0F0F000005050000050F000080002E4080B582B000AF021CBB1D1A80BB1D1B88DB
:40308000181CFFF743FDBD4602B080BD80B582B000AF78607B68181CFFF714FDBD4602B080BDC04680B500AF00F066F8BD4680BD80B500AF00F06AF8BD4680BD80B500AFE4
:4030C00000F064F8044B181C00F024F8032000F02DF8BD4680BDC046D531000080B500AF024B181C00F004F8BD4680BDD531000080B582B000AF786000F048F87B68181CA5
:4031000000F008F8032000F011F800F035F8BD4602B080BD80B582B000AF7860024B7A681A67BD4602B080BD0000002090B585B000AF021CFB1D1A700623FB600B23FC1815
:40314000FFF767FB031C23700A4B0A4A1268C0218A43111CFA1D1078FA689040021C0A431A600B23FB181B78181CFFF756FBBD4605B090BD0CE400E080B500AF024B80229A
:4031800052011A60BD4680BD00E100E080B500AF024B802252011A60BD4680BD80E100E090B583B000AFFC1DFFF733FB031C2370074B074A126804218A431A6030BFFB1D7A
:4031C0001B78181CFFF729FBBD4603B090BDC04610ED00E080B500AF0FF05AFBBD4680BD002243088B4274D303098B425FD3030A8B4244D3030B8B4228D3030C8B420DD381
:40320000FF22090212BA030C8B4202D31212090265D0030B8B4219D300E0090AC30B8B4201D3CB03C01A5241830B8B4201D38B03C01A5241430B8B4201D34B03C01A524149
:40324000030B8B4201D30B03C01A5241C30A8B4201D3CB02C01A5241830A8B4201D38B02C01A5241430A8B4201D34B02C01A5241030A8B4201D30B02C01A5241CDD2C30919
:403280008B4201D3CB01C01A524183098B4201D38B01C01A524143098B4201D34B01C01A524103098B4201D30B01C01A5241C3088B4201D3CB00C01A524183088B4201D372
:4032C0008B00C01A524143088B4201D34B00C01A5241411A00D20146524110467047FFE701B5002000F0FCF802BDC0460029F7D003B5FFF775FF0EBC4243891A1847C04650
:4033000003460B437FD4002243088B4274D303098B425FD3030A8B4244D3030B8B4228D3030C8B420DD3FF22090212BA030C8B4202D31212090265D0030B8B4219D300E0E0
:40334000090AC30B8B4201D3CB03C01A5241830B8B4201D38B03C01A5241430B8B4201D34B03C01A5241030B8B4201D30B03C01A5241C30A8B4201D3CB02C01A5241830A5D
:403380008B4201D38B02C01A5241430A8B4201D34B02C01A5241030A8B4201D30B02C01A5241CDD2C3098B4201D3CB01C01A524183098B4201D38B01C01A524143098B421E
:4033C00001D34B01C01A524103098B4201D30B01C01A5241C3088B4201D3CB00C01A524183088B4201D38B00C01A524143088B4201D34B00C01A5241411A00D201465241A7
:40340000104670475DE0CA0F00D04942031000D34042534000229C4603098B422DD3030A8B4212D3FC22890112BA030A8B420CD3890192118B4208D3890192118B4204D3A4
:4034400089013AD0921100E08909C3098B4201D3CB01C01A524183098B4201D38B01C01A524143098B4201D34B01C01A524103098B4201D30B01C01A5241C3088B4201D39F
:40348000CB00C01A524183088B4201D38B00C01A5241D9D243088B4201D34B00C01A5241411A00D20146634652415B10104601D34042002B00D54942704763465B1000D371
:4034C000404201B5002000F00BF802BD0029F8D003B5FFF715FF0EBC4243891A1847C0467047C0460E4B70B500251E1C0D4CE41AA410A54204D0AB00F35898470135F8E76E
:403500000FF066FD084B00251E1C084CE41AA410A54204D0AB00F35898470135F8E770BDDC2F0100DC2F0100DC2F0100E42F010030B50024944208D0035D651C0C5DA34281
:4035400001D0181B02E02C1CF4E7002030BD002310B5934203D0CC5CC4540133F9E710BD031C8218934202D019700133FAE7704710B501F059FA10BD10B500F0ADF810BDD2
:4035800010B50749044609780220002907D1204601F06BFA002802D1204608F0C9FE10BDEE020020FFB51E4F81B00646397800200A9D1C46002902D0082005B0F0BD0299B7
:4035C000002900D10120002E27D0002C25D00028F3D101F029FA032D05D9A0894008A081A07B4000A0732B4622460399029800F019F80028E1D17D7001F01EFA0028DCD1A7
:4036000030467E6006F082F80028D6D106F098F80028D2D101213970CFE70120CDE70000F4010020FFB5002481B01D460F460646002806D00398002803D030463843800722
:4036400001D001243CE0032DFBD91F488742F8D3FFF744FDFFF72CFD00F098FA00282DD100F0F4FB002829D11849084600F0C6FD0004000C22D13046154E3060B780002015
:40368000F0803581AD1DEFB23946039800F066F804000ED1B088F2880837801AF9B280B201F09CF8002801D0012407E0E8B200F00DF900F025F907490120087000F078FA53
:4036C000204605B0F0BD0000D8080000D93700009C040020FC01002010B503480078012801D100F01DFF10BDFC01002070B5084B0446DA889E8800205518B54206D21D6891
:40370000AA182260DA885118D98070BD032070BD9C04002001480089704700009C04002030B50C4B04461B7A01209C4210D20A4D2B68002B0CD0A000002902D0C3185B8B52
:403740000B80002A03D029684018407E1070002030BD00009C04002000020020F3B582B00C4600208900009001916846FFF7BEFF164D00992960002826D1002317E09A00FB
:403780002968062B8B5406D2114E9619777851184F70718806E0029E9619203EB77A51184F7031892E6892195B1C5180DBB2A342E5D3002808D168460199FFF797FF00281C
:4037C00002D1044A0099116004B0F0BD0002002080300100040200207047000010B5002809D005494A68002A05D0011F08788000105800F0A1FF10BD0002002010B50446B2
:40380000FFF788FFC0B2801D0749A04202D24868002808D04968A000085800F0FFFE002801D00470001D10BD00020020F8B516460D460446FFF76EFFC0B2801DA04203D260
:403840000020C0430090F8BDB2B2E9B2684600F00BFF0099481C03D0024AA000526811500098F8BD00020020F1B50027FFF752FF801DC6B20B48002504680FE060780028F7
:403880000AD061880098814203D32078FFF7B6FF0746002F04D1241D6D1CEDB2B542EDD33846F8BD0002002010B50446FFF732FFC1B200208C4202D2A01DFFF79FFF10BD82
:4038C00010B5002801D0FFF789FF10BD70B506460948002504680BE06178002905D062882078121D0023FFF7A1FF241D6D1CEDB2B542F1D370BD00000002002000207047F6
:403900001CB5002469460C70142001902346054A05480CF08BFB04480068401C00D1FF2420461CBD7D390000080200203EB5124A0146FF2000230124126800290DD0012951
:4039400014D0042908D104206946009308814B8110460CF066FB80B23EBD6846009304814381694610460CF057FBF4E768460093048143816946EBE70802002070B54589E2
:40398000046841680089030000F026F806240408081D2124002004F08FFE1BE0022908D0C8B22A4621460AF02DFE2046FFF788FF10E002202A4621460AF024FE29462046E6
:4039C00000F018F806E000200CF024F802E020460CF0B2FB002070BD30B47446641E2578641CAB4200D21D46635D5B00E31830BC18470000014B0022DB6818470C0200206D
:403A000070B5448905680089022803D0032809D0FF2070BD2246094C0023A46829460120A04708E0FFF7A4FD241DA2B200232946022005F04EFD002070BD00000C0200206B
:403A4000704700000248002141600180418070470C02002070B50C46002186B016460391012802D0022859D116E003A9012005F088FD01281BD1039D324621462846FFF71A
:403A800066FD0095287801900220694608814E816846FFF7B5FF41E0214D002B686809D0049004A9022005F06CFD01281DD0022006B070BD002812D0298840182146FFF7AD
:403AC00046FD28880024801980B228806988091D884206D12C801348FFF792FF03E00320E6E788421AD96C6018E004986860E278A378110219430B4A698000231060E35650
:403B00005360032313815181A1788170E178C1706178417021780170042028800020C7E70C020020A80400203EB515460C46022803D004280CD000203EBD00910190022086
:403B40006946088107484A8100680CF06AFA07E00AF058FD044B0022DB6829462046984701203EBD080200200C020020014AD160906070470C020020034801688068081A0A
:403B80000A21484300097047B404002010B5FFF795FA542204490548FFF7D9FC03490120C870002010BD00009C300100F405002010B5FFF777FA10BD70B5134C2368002BE7
:403BC00008D0207B1149C20705D04008400020738868A08070BD88680B4AA18880B29268814203D90A4D691A091802E0814202D2411A5118A160A080A0689842EAD300F0E1
:403C000015F80CF02BFA70BDB4040020C0102E40FFFF000010B508461946FFF7A7FF10BD704710B5FFF780FF10BD000003480021016041608160C16070470000B40400207D
:403C400010B502000DD0FFF7F1FF074C0321207B0843207310010A21FFF748FB2060002010BDFF2010BD0000B404002000B504480A21806848430209FFF7D8FF104600BD9A
:403C8000B40400200248007B8007C00F70470000B404002070B545490868CA0410430860434AD06853051843D0600868002802DA404B01221A700222904308603B480E2171
:403CC0006C30FFF73FF9394801216030FFF73AF9394C3A4D21462846FFF734F9374838496C38FFF72FF90A20FFF7D0F933487C380069C30B2D484030026A134254D001209E
:403D000000F028FA21462846FFF71CF92B4820210830FFF717F9294814212030FFF712F92648FF21C1312830FFF70CF92348FF212F313430FFF706F9204822494030FFF758
:403D400001F91E4820493030FFF7FCF81E491B48491C3830FFF7F6F818481C493C30FFF7F1F816481A495030FFF7ECF8134819497438FFF7E7F8114817492C30FFF7E2F867
:403D80000E4816490C30FFF7DDF80C4814491030FFF7D8F809481921C9021430FFF7D2F8FFF7DEF8002070BDFF2070BD00F02E4000020B401C020020556500007C002E4044
:403DC00092C90000320300002F3F00003102000010520000EC160000FA12000031D000003AE3000070B50646581C80B245086D00002408E0304600F07FF81055000A1119B1
:403E0000A41C4870A4B2AC42F4D3D80705D0D0182038D15CC47FD454C17770BD30B50A4C002100195B1E07E0541864782502545C2C430480891C89B29942F5DB994201D1EF
:403E4000515C018030BD000000102E4010B5FF2000F080F90F49FF2048700E481021801D41800121417001700A490020C91C4870FFF710FF04000AD100F0CCF807210648E6
:403E8000FFF752F8044807211830FFF74DF8204610BD00001C020020CC112E4030B504465B1C1804450C002308E0204600F024F8241D59005B1CA4B250529BB2AB42F4D375
:403EC00030BD000070B500210A4D5B1E0AE0541864782602545C344346193480001D891C80B289B29942F2DB994202D1515C4019018070BD00102E40014940180088704793
:403F000000102E40014A80180180704700102E4010B50B490020487000F07CF8002000F03FF9002000F02CF907210648FEF7FCFF044807211830FEF7F7FF002010BD00009E
:403F40001F020020CC112E4010B50B46062812D006DC01280CD0032801D1FFF7D9FF10BD0A28FCD00B28FAD105480078107010BDFFF76CFF10BD1146184600F02DF910BD3C
:403F800022020020F8B5204DAC6A0127A0071F4E002816DA307806280ED1286A384328621B480069F903084381B219481030FEF7C9FF042000F0CEF8134802212830FEF7A4
:403FC000B3FFE00711D0062000F0C4F80F49FF20C91E48707078002802D1686B38436863094801212830FEF79FFFE0050BD53078042802D1052000F0ADF80348FF21013142
:404000002830FEF791FFF8BD40F02E401F02002000002E4010B503212348FEF793FF0120FFF726F820483038406A204C80076178800F890001431C480C38FEF783FF6078F8
:40404000002808D0401E022181401820FFF73EFAC000083800E0B82081B21548FEF772FF1348032109021438FEF76CFF10481149B830FEF767FF452189010F48FEF762FF22
:404080000D480321001FFEF75DFF0C490C48FEF759FF0B480B496038FEF754FF084801218838FEF74FFF10BD70F02E4022020020D8102E4090890000041E2E40FF0F000039
:4040C00058122E40209000000849087806280BD148780749002803D1486B400840004863C86A01221043C862704700001F02002040F02E4001480078704700001F0200204A
:4041000000B50300FFF768FC080D050D0B070507090D012000BD032000BD042000BD022000BDFF2000BD0000074A9168D26889B2064B92B2994204D105498A4201D10121A6
:4041400000E000210170704780002E4033D000003FE3000010B50446FEF7AAFF072C01D9FF2C01D102480470FEF79CFF10BD00001F02002001494870704700001C020020F9
:4041800010B5064A012805D01921C9021046FEF7D9FE10BD1D21C902F8E7000090002E4010B50A4A141D012808D009491046FEF7C9FE08492046FEF7C5FE10BD0449104684
:4041C000891CFEF7BFFE0349491DF3E788002E4031D000003AE300000078074AFF2803D04C2804D9553803E01078087070474F3808701070704700001E02002010B50F4AF9
:40420000002313600E4A13600E4B18600E4801600E49012008600E490860000290600E490C4808600D4914300860FF381538506000F0BCF800F0CAF9002010BD4002002015
:404240002802002054020020580200204402002034020020C4050020380200204C020020014610B50020002910D0094B1A689C685118A14209D25868196080188A0704D02B
:404280008A07920F891A091D196010BD002010BD28020020F8B50024164E671E321F3D463168136806E01422624310328A58521C1BD0641C9C42F6D36A1C14D02C4614226D
:4042C000544322460C3288500C214843FFF7C8FF3168002808510AD031680020103408517068401C70602846F8BD2546E4E73846F8BD000038020020F3B50026F64381B0C8
:4043000000281BDB1E490968884217D80299002914D01B4F142204463F1D54432546396810354859401C09D0FEF7C2FE38682F1F4159C359994203DBFEF7B4FE3046FEBD38
:40434000214608310091465801590C20704308180C220299FFF7FBF80948761C001D0068C159B14200D100260549009A091D865008684159491C4151FEF794FE0020FEBDB0
:4043800034020020002803DB07490968884202D90020C043704704491422091D09685043103008587047000034020020F0B500200D4A451E0346171F50600FE014260146E9
:4043C000714314680E1DA3510C461668083433511668083435511468401C635039688842ECD30020F0BD000038020020F3B50026F64381B0002841DB2349096888423DD88A
:40440000029900293AD0204F142204463F1D54432546396810354859401C2FD0FEF748FE3868415900292BD0211D009146580C21005971430F46C1190C220298FFF787F8D3
:4044400011480021001D0068761C00590C34C0190160416081600C48001D00680159B14200D100260849009A091D865008684159491E4151FEF716FE0020FEBD3046FEBD3A
:40448000FEF710FEFAE7000034020020FEB504460D4600201E49089E0860471E009001900290002C11D0486885420ED2002A0CD0002E0AD0642E08D808460C3001681C20B2
:4044C00068430C18207A002801D03846FEBD0120226020721846FFF7DDFE6060401C13D06681A6810A4827610C3067610179A94200D205710021684601810A462846029B79
:4045000000F040F82846FEBD00202072DDE700004002002038B50124009400F039F838BDFEB50027164EFF433D4600240EE01C20316860430818017A002906D04068FFF7D1
:4045400021FF002801D0254603E0641C3079A042EDDA681C12D01C2130684D434419FEF7A7FD69466068FFF741FF0546FEF79AFD002DD9D1216868468847D5E7FEBD000069
:404580004C02002038B50024009400F001F838BD1FB500220C49541E0A60002811DB496888420ED808491C220C31096850430818406801A9FFF7A0FE401C02D0002004B096
:4045C00010BD2046FBE7000040020020F0B50021114A4D1E174611710C3F0B46BD6016E008461C2460431668041D355114680646235014680836A3551468361DA3530446D8
:4046000016680A34335318301468491C255078688142E5D30020F0BD4C02002038B500210091002811DB0F49097888420DDA0D4D04010C3529680859002807D0201D0818D9
:40464000694600F06DF9002801D0002038BDFEF72FFD28680F34015D491E0155FEF722FD009838BD5C020020F7B582B0002502986E1E06602E48D21C024017462D4A2C467E
:4046800010460C380178106805E02301C358002B0FD0641CE4B28C42F7D3711C28D03401211D40180191039900F028F900281FD101E02646F1E71F48016820460C300F52F4
:4046C0001C480399026820460E30115419480399026820460F3011540398784300F0A0F8144900280968085102D00024009011E001251AE00F48016801980818009900F010
:404700002AF9002801D0012502E00098C0190090641CE4B203988442ECD3002D05D10298066004480179491C0171284605B0F0BDFCFF000068020020F8B50D4600216A4658
:404740008C461180002839DB23490978884235DA214B04010C3319680A59002A2ED020460C300B5A801C0E5C184670438018954224D3854222D2002006E007465F43BF180D
:40478000AF4206D0401CC0B2B042F6D36046002814D0114E271DC8190C366A46294600F004F900280AD168460088012808D030682946C01900F0CFF8002803D00120F8BD83
:4047C0000020F8BDFEF774FC30680F34015D491C0155FEF767FCF3E75C020020F8B50F46002400F033F8002817D10C4900220B460C334A600EE021011D680E466A501D68B1
:404800000C36AA53B61C1D680F31AA551D68641C6A54E4B2BC42EED31A71F8BD5C020020014610B5002000290CD0C91C064B8A08596892005C888A18A24202D898685A6083
:40484000401810BD002010BD5C020020F8B5044600200D4E009031700D01748029466846FEF744FF00280DD131460C3100980860601B001F81B26846FEF738FF0099B160A3
:40488000002800D0FF20F8BD5C020020F8B5002827DB19490978884223DA174C05010C342168485900281CD028460C30085A009028460E300E5C401C0E5420682F1DC01929
:4048C00000F064F800280CD12068002445590EE0094829460C300068C01900F03CF8002801D00120F8BD00982D18641CE4B2B442EED30020F8BD00005C02002030B50D46CA
:4049000004000BD0A800FFF78BFF6060002805D000202570C0436080002030BD012030BD70B50D46040005D0002D03D00220205E002801DA012070BDFEF7BAFB0221615E32
:4049400060688900405828606088401E6080FEF7A9FB002070BD70B50D46040007D0002D05D002212078615E401E814201DB012070BDFEF79DFB6088401C00B26080616874
:4049800080000D50FEF78EFB002070BD10B5040009D0227800216068FEF7E2FD0020C0436080002010BD012010BDF0B500231D46002802D00224045F0AE00120F0BD466864
:4049C0009F00F6598E4201D1012503E05B1CDBB29C42F4DA15700020F0BD00000148007870470000700200207CB505460024FEF7BFFDA8796946087000A806222946013009
:404A0000FEF7A5FD0021684604F0B4F80C2804D0072804D01F2804D004E0022402E0042400E0272420467CBD10B500F0B7F8FFF761FBFFF765FB10BD10B503240BF0F6FFB7
:404A4000002810D10BF09AFF00280CD104F0E8FD002808D100F064FA002804D104F0E4FA002800D10024204610BD70B50025044600280ED0A07901280BD8FEF779FDA0790A
:404A80000028204602D002F0D3FD03E002F088FD00E00125284670BD38B504460120002C20D0617801291DD800290BD0FF25E535FEF75EFD2846FFF71FFAC0B2207007282D
:404AC00003D00EE0FF25CD35F2E70020694608706846FFF729FB69460878012801D108202070002038BD70B504460120002C1FD06178012902D92278092A19D8002905D0AB
:404B0000FF25E5352078092803D004E0FF25CD35F8E707202070FEF72BFD2078082808D00020FFF73DFB21782846FFF7EBF9002070BD0120FFF734FB0721F5E770B50D4600
:404B4000040001D0002000E00548002802D0012101F0A6FF2946204602F080FA70BD00006806002038B5054600200446009022466946284600F06CFE0098002801D00BF0C8
:404B800037FFA878214602F0ADF8A878214602F09CF8641CE4B2052CE9D338BD38B5FFF7A9FA042819D0052817D006281AD0032842D007280AD100206946087002460120DE
:404BC000FFF7C2F9FFF796FA0128FBD138BDFEF7E7FAFFF78FFA0128F8D0FFF78BFA0128F5D138BD02F0E6F805E0FEF7D9FAFFF781FA012803D0FFF77DFA0128F5D1A124E4
:404C000024012046FFF778F901220E4983079B0F0A70022BE5D149880029E2D0104301462046FFF76FF92046FFF766F9410849002046FFF767F938BD02F0C0F80120FFF7AE
:404C400089FA38BD76020020F8B50646002402F0F3FD0546304602F007FE00210346012632468A40174610462F401840002F03D0002801D1224394B2491CC9B20529EFD3A9
:404C80002046F8BD1CB50020694648706846FFF703FF01AA69460A20FFF756F96946042008561CBD10B50C4601F076F9002809D00179002906D0C1788078224602F07CFA16
:404CC000002010BD022010BD0148007870470000340600204030C07E002800D00120704700B500F001F800BD88214843064940186030417F491CC9B24177052901D3002147
:404D00004177C8B2704700004806002013B501F043F904000BD001F096FC002807D0214601AA0A310620FFF70FF900201CBD02201CBD000010B50C4601F02EF900280AD030
:404D400001F081FC002806D0224604490A20FFF7FBF8002010BD022010BD00001D060020F3B581B0074601460026029802F05CFD0446002F01D0002500E0154D002D21D099
:404D8000284601F03FF9032C04D13946029802F075FD06463846029901F097FF032C06D0002C10D00121384601F01AFA03E03146384602F017FF284601F058FE0221284613
:404DC00001F06EFEFEBD3846029901F07EFFFEBD6806002070B50446002503F005FB002801D00C2070BD2078611C02F0DFFAFF2802D01F25284670BD02F02CFBFF2804D026
:404E00002178621C01F0D6FEF4E70725F2E710B503F0EAFA002801D00C2010BD02F09EFA002010BD70B50D46044610210BF020FD1021601806460BF01BFD33461022194694
:404E4000204603F0FDFA102130460BF011FD02202870204604F040F870BD70B504464078217802028006850FE0781143A67809050002090D0643084601F08EF8002812D0D3
:404E8000022D10D0032D0ED0002E08D00179092909D0002907D0214600F0A1F870BD0089002103F04EFF20460BF0A2FD70BD0020704770B50446002503F096FA002801D02F
:404EC0000C2070BD2078611C02F070FAFF2802D002F0B2F900E01F25284670BD10B504F0A3F800F0F6F8002010BD10B5044600786178E2780843A1781143084321790843D2
:404F00006179084305D003F061FA002803D00C2010BD122010BD204602F08AFB002010BD10B5044803F0CAFA02F090F900F004F8002010BD04060020F8B5114D00266E7017
:404F40006E736E716E76AE76EE766E75AE70EE70AE712F46EE730120B03778723F2078719B20B87100F00AFA0024204601F032FB641C2406240EF8D03E72FE71AE73F8BD5E
:404F80004806002070B505460E46084602F054FC0446304602F068FC0121A9400A46224001400A4301D0012070BD002070BD10B50446084602F058FC0121A140014201D0A8
:404FC000012010BD002010BD10B5FFF793F8032804D101F0F3FE0120FFF7BCF810BD70B5044600790D4609281CD000281AD020464030817E491C8176204601F037FDA078D8
:40500000FFF76EFE064602462946204600F00CF8002806D1A0783146FFF790FD28460BF0E7FC70BD0846FAE7F7B5054648780C468006870FC8788978000282B0014368466C
:405040008180284601F00AFB060007D021462846049A00F091FB304605B0F0BD384600F039FC0746034601AA2946204600F0CAFA68468088231DC0B20090A878FF220499E4
:4050800001F0A6FF684680883B46C2B2A878049902F04AFBDFE770B5002500242846FFF7D3FD060010D03046E040C007C00F07D02146284601F0FDFD21462846FFF750FE91
:4050C000641CE4B2052CEED36D1C2D062D0EE4D070BD10B502F0BAF8FFF72EFF0BF0F0FC002010BDF8B5002400F081F80123012800D10124104F00203E4620360425082247
:4051000003E0002801D0002100E031460979002907D001290BD002290BD0114681402143CCB2401C0006000EEBD07C70F8BD1C43F7E72C43F5E700004806002010B5FFF717
:40514000D1FF10BD10B50B4681791943817103D08078114602F0ACFA10BD10B582798A43827102D1807802F0BBFA10BD70B5FF25D53502242846FEF7BFFE0C4A91780029CD
:4051800001D0022906D1137852789A18282A01D9032402E0032900D101244105490DE00201432846FEF7AEFE70BD00007202002010B500F022F8002807D0012805D0032835
:4051C00001D0042801D0002010BD012010BD014610B50020C90701D000F009F810BD014610B50020C90701D000F001F810BD10B52020FEF781FE000A10BD10B51820FEF7B6
:405200007BFE410501D5042010BD4007800F10BD38B5044640060CD5684601F0D5FD0220FFF78CFF072002F02DF96846007801F03FF9200613D5FFF7E0FF01280FD16846AB
:4052400001F0C2FD6846007800F09AFA072002F019F9012001F072FC0220FFF76FFF38BD10B5034A0178117002F01BF9002010BD7202002010B50446FFF7B9FF002801D065
:405280000C2010BDA27B01211848002A827801D00A4301E05208520082706279012A0FD0C17849084900C170207901280CD06188208802F005FF2080207904280BD00DE05A
:4052C000C2780A43C270EFE7E01D02F099F90848808C208002E0E01D02F092F9054920798870204602F0ECF8002010BD48060020F40500207202002038B50478FFF777FF4E
:40530000844201D10C2038BD002C18D0072069460870FFF74DFF012807D10121684600F08DF8012801D0092038BD6846007802F0A9F8FFF71BFF02F0F0F8012010E0FFF708
:4053400037FF012806D1684601F03EFD6846007800F04AFA072002F095F802F0D5F80220FFF7ECFE002038BD10B5034A0178517002F076F9002010BD7202002038B568467E
:405380000BF0CCFA002801D01F2038BD01210098C90201804180002505714571857107214173857302F08CF8009C202200212046FEF7D6F825702A460021601CFEF7D0F820
:4053C000204602F06EF8204602F04AF900980BF00FFB042200210248FEF7C2F8002038BD720200200346084800B5834209D8184600F0D2FD002804D00089984201D101206B
:4054000000BD002000BD0000FF0E0000074A9179491C8906890E917138220A4092014907090E1143084302490840704748060020FF0E0000C006C00E70470000F8B5074696
:405440000E4600240D4803E0002C01D0002500E005462979002905D0641C2406240EF3D00020F8BD204601F0B5F82E712046FFF7CDFF28813C700120F8BD00006806002097
:4054800010B503F011F80222002100F003F801F085FE10BD10B5094B40074907000F090F185A595A40185043C0086421FDF71EFF002800D1012080B210BD0000F03001003B
:4054C000F7B53D20405C88B016460C46002829D030786946087200252046FFF7FBFB012800D00125204603A938300191009023460327A17E34332A46206A02F0F9FF02A856
:40550000089900900B46019120463A4603A9243002F078FF02466846007A3070204601F045F810460BB0F0BDFFB587B00C4605461078694608723D20005D1746002826D038
:4055400000262046FFF7C6FB012800D00126204603A93830019100902346A17E34333246206A02F0C5FF02A80090291D019120462B1D03A924300A9A02F044FF020068463C
:40558000007A388002D1204601F010F810460BB0F0BDF7B53C20405C88B015460C4600280CD0287869460872002806D000262046FFF790FB012803D003E01F200BB0F0BDE2
:4055C0000126204603A938300191009023460327E17E34333246E06902F08AFF02A8089900900B46019120463A4603A9243002F03BFF02466846007A2870204600F0E0FF46
:405600001046DBE7FFB505463C20405C87B016460C46002810D0084601F020F801280BD0308869460883002809D000272046FFF751FB012805D005E000200BB0F0BD0220C4
:40564000FBE70127204602A93830019100902346E17E34333A46E06902F04AFF06A80090291D019120462B1D02A924300A9A02F0FBFE02466846008B30806846008BA8707E
:40568000000AE870204600F09BFF1046D5E770B50D460446FFF71EFB01280AD0E87AA97A00020143A07801F049FC012808D0002070BD00222421204602F04CFC242070BDD3
:4056C00028214C200155204600F09AFB282070BD002801D0002000E003484030C07F012800D0002070470000680600200146002049070ED50021084B03E0002901D00022E1
:4057000000E01A461279022A04D0491C0906090EF3D0704701207047680600200146002049070ED50021084B03E0002901D0002200E01A461279022A04D0491C0906090ED0
:40574000F3D07047012070476806002010B5044680346068002803D00BF05EF90020606010BD4030417070474030817070474030017070470171704792001018C16670477B
:4057800070B53C2501F0F4F8040004D020460021433001F08DFB2946204600F0C0FB002C02D0A07801F076F870BD000010B5002801D0002000E00348002802D0008903F09A
:4057C00007FB10BD6806002010B5002801D0002000E00448002804D00179072901D100F041F810BD6806002010B501F0C1F8002802D0807801F04EF810BD0020704700000A
:4058000070B50546008A00281ED010491122897A1140C90618D5294640314A8A098A521C4A4392B2D10800D10121540801E0621A94B2A042FBD9FFF7D1F8012804D1298A45
:40584000A878224601F058FC70BD0000F405002000230B60052A04D292001018C26E0A60C366704738B5044600200090A079002814D14020015D052901D00E290ED16846C0
:405880000BF05CF8002809D12046009902F04AFB03481021C28A2046FFF754FC38BD0000F405002010B50B4604460146184602F019F8002802D020460BF0A4F810BD13B54B
:4058C000044601AA11460620FEF73EFB6846818861811CBD002800D10220704770470000F8B504462346401D543300909A1EA078911E01F078FA25464035A88A298A800012
:40590000FDF7F4FC401E81B2688A884203D96982A07801F04AFF20460021433001F0C8FA8020FEF7E9FAE88102F0BEFDE989891C8AB26179FFF7AEFD01F030FC02F0B4FD54
:405940002A8A6179FFF7A6FD074601F019FC688A00280BD0FF26F1363046FEF7CDFA0321090201433046FEF7CDFA02E0002001F00AFFFF206130FEF7BFFA6E8A002E0BD03A
:4059800070431049FDF7A2FD0004000C01D0401C80B20D49488002E00B4800214180288A704381B2A07801F069FE2837B9B2204602F08AFBE98AA07801F0B8FDA07801F0BB
:4059C000A7F9F8BD71020000760200207FB504468034616805460E46183108226846FDF7B6FD31462031082202A8FDF7B0FD102168460AF03DFF6068102108300AF038FF31
:405A000060682B46083024331022694602F018FD7FBD10B504460821FFF79FFB10212046FFF79BFB207905281FD006281DD008281AD12189002003F043F90720207120468D
:405A4000FFF748F9014620464030012913D00E21017000210176204600F028FF2046FFF775FE2046FFF7CCFE10BD20890122002103F00AF9E1E70521EAE70000FFB581B0C7
:405A80001F4604460821FFF768FB10212046FFF764FB2079082803D0092804D0042203E00422012501E009220025204600F0C2FD264600204036307022712046FFF746FEB8
:405AC0000398002D02D0012808D00BE001280AD120890022029903F0D7F804E02189029803F0EEF8012700203076012F04D0204600F0DCFE05B0F0BD02983073204602F0DA
:405B000055FA054605480121C28A2046FFF71AFB002DEFD109202071ECE70000F405002070B50C460546FFF7D5F8012809D108212846FFF712FB0023012221462846FFF7D9
:405B40009DFF70BD10B5044600F074FD2046FFF7FDFD00214034217010BD70B505461A24FFF7B8F8012809D108212846FFF7F5FA0023012221462846FFF780FF70BD000013
:405B8000F8B50446002000900E4668460AF0D6FE002801D00D20F8BD8420005908212030009D00F0F4F920460421383000F0EFF9002E02D1204600F07BFD2946204602F042
:405BC00041F90E480821C28A2046FFF7BBFA204600F0D3FE25464035002808D0204600F023F8002801D0092028700020F8BD08202870204600F03AFFF7E70000F405002042
:405C0000014610B540310A460978082906D0092907D00A2901D100F091F810BD0B20107010BD00F001F810BD70B50446007925464035052805D0062803D008280FD00C2087
:405C400070BD03220621204602F084F90D480821C28A2046FFF776FA1120287010E006202873204602F0A2F90646AA8A0A20424301212046FFF766FA002E01D1092020710C
:405C8000002070BDF405002038B504460020009068460AF053FE002801D00D2038BD2046009D00F08BF908202071204600F000FD2946204602F0F8F800213D2001550F2046
:405CC00040210855204600F0D1FE002038BD00B5024600F0AFFC10214032117000BD10B50446FEF7F7FF012809D04020005D112805D100231A4606212046FFF7BFFE10BDDB
:405D000010B5FFF786FE10BD38B504460021684600910AF013FE00280CD12046009902F03AF905480821C28A2046FFF70BFA0D204034207038BD0000F405002038B50446F3
:405D40000021684600910AF0F9FD002801D00D2038BD2046009902F013F905480821C28A2046FFF7EFF90C2040342070002038BDF405002000787047F8B50025002801D05D
:405D8000002400E01A4C002C28D0204600F05BFC002823D0207903281CD005281CD026464036B18AA07801F077FCB078012815D10021204601F0B3FD2746803738680028E0
:405DC00002D00AF029FE3D600020B0702079072805D007E0042000E006202071F8BD2046FFF70EFD0221204600F05AFEF8BD00006806002010B54C22115400F046F810BDD1
:405E000010B50446FF21FFF7A8F909202071A07801F072FC10BD000038B5FF216A461180002801D0002400E0064C002C08D011460620FEF789F8684601882046FFF73FFD3B
:405E400038BD00006806002010B504468079002809D022214C200155FF212046FFF77DF9204600F012F810BD10B5037902464032002B03D01173092B02D003E0002100E00B
:405E80002221117300F001F810BDFEB504460089002701902781207926464036002817D0012815D002280AD112E002AA6946204601F006FD002807D100980AF0A3FD2046A3
:405EC00001F026FD0028F0D02046FEF74BFEB776254680352868002802D00AF09DFD2F606868002802D00AF097FD6F60317B002902D0019800F044F8A078002100F01CFF31
:405F00002046FFF7BDFAA07801F002F8A07800F0C1FC0B20FFF712F900F000FCFEBD70B50E46054602F0BCFA044606702846FEF7D1FE014601204140204661700C3000F009
:405F4000A0FF002D10D02889608028464030C1782171002E10D169796171018AE180418A2181808A608107E01820FDF7C5FFC005C00F207100206080204602F04AFE70BD6B
:405F80000A4610B50146002002F03AFF10BD10B50AF04AFA10BD000000B50146FFF74AFA002801D0002000E00348002802D002898A4200D0002000BD6806002038B5044660
:405FC00080346068002806D168460AF0C7FC002801D100986060606838BD000010B5014600F03CFB0128887802D0FEF77DFE10BD88214843024940186030007F10BD00008E
:406000004806002070B5054604464035A87F012811D1A1788820084A484380186030067F3046FEF7AFFF002805D10220A877A078314601F021F870BD4806002010B50E4C9B
:40604000E079002816D0FFF726F80C48827FC17F808B00F06BFB01280CD10020E07100F0BCFE0446AC20FDF747FF010B02D0204600F00EFA10BD0000F806002048060020A9
:4060800070477047490510B5490F0B00FDF7A4FC060704080C0C0F073E21FFF7ABFE10BD0821FFF7E1FE10BDFFF7EFFE10BDFFF7CBFE10BDF8B507460025002D01D000260C
:4060C00000E0204E00F064FE3046403044890021418100F067FE304600F0B5FA01282BD1A00702D52846FFF747FEE00602D52846FFF792FEA00601D5FEF7CDFF600601D58A
:4061000000F0C8FA200602D5284600F01DF8600702D5284600F0FAF9380402D52846FFF753FB780402D52846FFF740FBE00703D021463046FFF7A6FF6D1C2D062D0EBCD042
:40614000F8BD000068060020F8B5002801D0002400E0204C002C39D025464035A878012834D1E98AA07801F0E1F92046FEF7B2FD01282BD002F098F92A8A6179FFF78AF955
:40618000064600F0FDFF2836B1B2204601F09CFFE98AA07801F0CAF9FF206130FDF7ACFE6E8A0D4F0146002E11D0304648430B49FDF78CF90004000C01D0401C80B2788088
:4061C000288A704381B2A07801F058FAF8BD0020F5E7000068060020760200207102000070B50D46124A010001D0002401E014462034002C1BD0204600F030FA01280AD16E
:406200008820484380186030007FFEF7BBFE002801D101F055FE20464030817E491B8176204600F023FC2089294602F08AFD70BD4806002070B503460088FFF7ADFE04002C
:4062400013D000F000FA00280FD02079092819D02546997840352973204601F0A7FE0646A878012803D0AA8A02E0022070BDEA880A20424301212046FEF764FF002E01D140
:4062800009202071002070BD0EB5002217216B460292198100905A810120029B00990AF02DFC0EBDF8B5184E0024F079002820D10025AC20FDF720FE000B21E0204600F00D
:4062C00007FEFDF719FE07462A46214600F02EFA01280FD00D48012187838577C477F171002D01D0002000E02030002801D000F0BDFBF8BDAC20FDF7FFFD000B641CE4B2AF
:406300000028DBD1F8BD0000F80600204806002010B50088FFF740FE002809D0014640310C460978082905D00B2903D00C2010BD022010BDFFF778FC002801D0092020702A
:40634000002010BD70B503460088FFF725FE040008D0254640352878082805D00B2803D00C2070BD022070BD8420005910220830991CFDF7ECF82046FFF728FB28780828CF
:4063800004D02046FFF7DAFC002801D00A202870204600F06BFB002070BD000010B50C46002121700088FFF7F7FD03000BD000F04AF9002807D009481121807A0840C0063D
:4063C00003D4112010BD022010BD022020701A8A1889002102F030FD002010BDF4050020F8B50F46002100910088FFF7D5FD040012D000F028F900280ED0E079410641D4E6
:40640000617E02264A07002A08DB8907402500291ADA2843E07135E00220F8BD02F040F80021017021894180A1898180217E4170E189C1803E7005460178134802F062FAD5
:40644000284602F09DFC1DE0204600F00DF9012806D068460AF072FA002803D00720F8BD2A20F8BDE07900992843E071204601F0C7FD607E0421304360760448C28A2046CE
:40648000FEF760FE0020F8BD1D040000F40500203EB500220F236C460292238100910190628169460EC900200AF028FB3EBD000070B5054600F05CFA040021D00320207127
:4064C000254600264035EE76E6702046FFF708FA01F01AF80920FEF731FEA07800F006FD0121204600F0DCFA2E706E70AE7000212046FFF714FD0449887B401C887370BDD9
:40650000284601F0F9F870BD4806002010B5002801D0002400E00A4C002C0FD020464030417802290AD1002141702046FEF7D2FB002803D10221204600F0B2FA10BD0000D0
:406540006806002070B503460D460088FFF724FD04000BD000F077F8002807D012481121807A0840C00603D4112070BD022070BD20464030418A008A491C41430804C10CEB
:406580005888884201D2122070BD20822079072802D12046FFF734F9022028702089002102F072FC002070BDF4050020016A491C016204D1817E491C4906490E817670472F
:4065C000C169491CC16104D1C17E491C4906490EC176704770B500250646002801D0002400E0114C002C1CD0882200212046FCF7B7FFA6700020264620714036307020464C
:4066000000F018F8204601F07FF9084820820848B577807A1121084000D001202075012070BD002070BD000068060020B80B0000F4050020002101628176C161C1762030FA
:406640000177417770470079002805D0012803D0022801D001207047002070474030807F002800D00120704740300078002807D0012805D0052803D00E2801D00120704714
:406680000020704710B5807801F0EEF8002800D0012010BD10B500F0A0FB0446AC20FDF72BFC010B02D02046FFF7F2FE10BD000070B5054604464035A87F002823D1FF2080
:4066C0006075A0788821144A484380186030417F8823491CC9B24177A078584380186030052901D300214177A0788821484380186030467F0677A1783046FEF743FC002899
:4067000002D00120A87770BD0220A877A078314600F0B2FC70BD0000480600200020401C0006000EFBD0002070470000F0B515468207920F85B0C004C00E02926A4690809A
:40674000002D01D0002400E0514C002C29D0084600F0BEFB03906846808800280BD00298012845D0022843D003280CD03D20005D012872D086E00398FDF7BEFB0146204676
:40678000FFF79DF87EE00020029002A80AF0B6F8002807D03D20005D012876D12046FFF705FF72E06846029E8388324600210398FDF718FB0398FDF79FFB01462046FFF7B1
:4067C0007EF8284600F0B0FA01AA21463046FEF777FE002806D030460AF000F93D204C21085528E0F5773146204601F0DBF94CE000200090278968460AF070F8002802D0EF
:40680000002005B0F0BD6846009E8388321D00210398FDF7E7FA0398FDF76EFB01462046FFF74DF8284600F07FFA25464035287E00280CD103E02046FFF7E2FA25E001AA92
:4068400021463046029BFEF76FFE002806D030460AF0BAF83D202873EDE710E00298FFF73DF8390A000101433770717068468088B070000AF0703046FFF706FD05E0204691
:40688000FFF794FE284600F04FFA0120B9E700006806002010B5044A917B002901D0491E9173FFF797FE10BD48060020F8B5074606464037B87F00283DD0B0788821009086
:4068C00048431F4945186035287F0099FEF76FFB012831D0287F401CC4B2052C00D300240020B877FF276F772F77A87702460146009800F041FD717DFF2903D0304600F085
:40690000C4FF777501F0DCFA00252F462246694630460097FEF79CFF0099002902D03046FEF75DFB641CE4B2052C00D300246D1CEDB2052DEAD3F8BD0320B877F8BD00002B
:406940004806002010B502460021084B03E0002901D0002000E018460479944204D0491C0906090EF3D0002010BD00006806002000B50120FFF7E6FF00BD10B5044601F08F
:406980008FFD2189018080346168416061682831816002F0AFF910BDF7B50646087982B00C46092807D0A078F0770846FFF756FE012806D010E030460AF024F8022005B02A
:4069C000F0BDA1788820284A484380186030007FFEF7D8FA012810D0A078FEF779FE01280BD037780121304601F017FA25462035062F36D00B2F0FD107E06846027C214655
:406A00003046FEF74FFF0D20D9E72046FEF762F9012801D1002028772046FFF7DFFA054604AA21463046FEF7B4FD01205F2108556946087C0090A07833463A46294600F05E
:406A4000C7FA69460A7CA0780323294600F06CFEA0782946FEF772F8304609F0D3FF0020ADE70120D7E700004806002010B502464032937F0021002B03D1927E002A00D036
:406A80000121064AD279002A00D000210279092A00D10121807800F063FE10BDF806002070B50C460646FEF715F9002814D1012C0ED935464035A87800280DD16878022822
:406AC0000AD03079092807D03046FFF7DBFD0446204600F080FD70BD0124F9E770B50D4601280BD0082808D1A8241146B020FDF709FA29462046FDF705FA70BD2020FAE7F3
:406B000010B501460820FDF7FDF910BD10B50446FF20F130012C01D1FF20D530002200F06AFE1020FDF7E8F90349A043088001461020FDF7E7F910BD7A02002010B50446FF
:406B40001020FDF7D9F90449A043088001461020FDF7D8F910BD00007A02002010B50446012802D0082C07D102E0FF20D53001E0FF20F13000F034FE1020FDF7BDF904493C
:406B80002043088001461020FDF7BCF910BD00007A02002010B504461020FDF7ADF904492043088001461020FDF7ACF910BD00007A020020F8B507460120B84085B2144633
:406BC0000E46012229467C2000F015FE32462946782000F010FE6078217800020143E078A5780002054360792679000206430C2047430D2080013C182046FDF783F9241D8B
:406C000029462046FDF77EF9201D3146FDF77AF9F8BD8B00034310B5D10191201943C000FDF770F910BD000070B505460C46407829780002014341200001FDF763F9E87872
:406C4000A978000201430A48FDF75CF960782178000201438320C000FDF754F9E078A1780002014302480830FDF74CF970BD00001404000070B50D46044681B20120800268
:406C8000FDF740F9210C0448FDF73CF981202946C000FDF737F970BD0404000070B5054600242846FDF728F9641CA4B2102CF8D370BD10B50C460146B020FDF723F9FF205E
:406CC00021462D30FDF71EF910BD10B50C460146B020FDF717F9204600F0B8FD0021FDF711F910BD70B50C46054600F005F821462846FFF7DEFF70BD10B50C460146B0201D
:406D0000FDF700F9FF2021462930FDF7FBF810BD10B50146B020FDF7F5F8FF20002220211D3000F068FD10BD010210B54D310020FDF7E8F810BD000010B5040200290146E3
:406D400008D0B020FDF7DEF8214675310020FDF7D9F810BDB020FDF7D5F8512000214001FDF7D0F800210348FDF7CCF821467631ECE70000240A000010B554210020FDF741
:406D8000C1F810BD10B553210020FDF7BBF810BD10B5034908884880FFF7D0FE10BD00007A02002010B502484088FFF7F3FE10BD7A02002010B5FDF787F910BD10B5522185
:406DC0000020FDF79FF810BD10B504461820FDF793F88004400F207010BD10B5B020FDF78BF8C0B210BDF8B50E4601461C461546B020FDF787F8FF20E930FDF77DF80746A4
:406E0000FF200130FDF778F83080FF200930FDF773F82880FF200530FDF76EF8208079070698490F0170F8BD10B5C820FDF764F810BD10B50C46002812D05820FDF75CF8FA
:406E40002070000A60705C20FDF756F8A070000AE0706020FDF750F82071000A607110BDFF20C130FDF748F82070000A6070FF20C530FDF741F8A070000AE070FF20C9301A
:406E8000E8E770B504466820FDF736F806466C20FDF732F805467020FDF72EF82670310A6170A570290AE1702071000A607170BD10B50446012905D01820FDF71DF8C00B11
:406EC000207010BD4820FDF717F88007C00FF7E70120C002704710B50C460146B020FDF711F80321A0014902401810BD8821074B414310B5C918FF2260314A770A77002261
:406F00008A77114600F038FA10BD00004806002088225043074A10B58018FF21603041770177002181770448418EFF201D3000F057FC10BD48060020F405002010B50C4683
:406F40000146B020FCF7DEFFFF202530FCF7D4FF0222214600F002F810BD000010B50023884201D8081A03E00024E443201A4018044980B2884201D8824200D90123184600
:406F800010BD0000FF7F0000F8B503465078167800020643D07895780002054350791779000288240743002900D098241946B020FCF7A8FF31462046FCF7A4FF201D294662
:406FC000FCF7A0FF204608303946FCF79BFFF8BDFFB581B014460D4606460A9FFFF77BFF3B460021049AFCF76DFF02484019845505B0F0BD7E02002070B506460D46112493
:407000002520A40108214001FCF77CFF2B46324600212046FCF756FF70BD70B5212405466401FFF7AFFE10232A4600212046FCF749FF70BD10B504464078217800020143B4
:407040008F20C000FCF75EFFE078A178000201430148FCF757FF10BD7C04000010B50C460146B020FCF74EFF802021460143FF202930FCF747FF10BD70B50D460146B020F5
:40708000FCF740FFFF241D342046FCF735FF01090901FF202943013001432046FCF732FF70BDF8B500242646012807D0032802D0052808D105E002240A2604E004240C2619
:4070C00001E004240D26492701463F013846FCF719FF25204001FCF70FFFC5B228462042F7D0252031464001FCF70CFF00213846FCF708FF2846F8BD70B50D46044601467F
:407100001646B020FCF7FEFE512029464001FCF7F9FE31460648FCF7F5FE032189030820FFF71CFD210275310020FCF7EBFE70BD240A000070B50D4604460146B020FCF7AB
:40714000E1FEFF2029461930FCF7DCFE21024B310020FCF7D7FE70BD70B5491E8CB205460146B020FCF7CEFEFF2021461930FCF7C9FE29024C310020FCF7C4FE70BD0000BA
:40718000054910B5884200D908460146FF206130FCF7B8FE10BD0000FF0F0000054910B5884200D908460146FF206530FCF7AAFE10BD0000FF0F000070B588251446002986
:4071C00000D098250146B020FCF79CFE2846FCF793FE2070000A6070281DFCF78DFEA070000AE07028460830FCF786FE2071000A607170BD10B51446024611200B468001B5
:407200000021FCF74BFE012C01D1FFF7B5FD10BD10B504460920C001FCF76EFE2070000A60700448FCF768FEA070000AE070FFF7A3FD10BD840400000121814010B589B2DE
